{
  "_format": "hh-sol-artifact-1",
  "contractName": "BookMarketplace",
  "sourceName": "contracts/BookMarketplace.sol",
  "abi": [
    {
      "inputs": [],
      "stateMutability": "nonpayable",
      "type": "constructor"
    },
    {
      "anonymous": false,
      "inputs": [
        {
          "indexed": true,
          "internalType": "uint256",
          "name": "bookId",
          "type": "uint256"
        },
        {
          "indexed": false,
          "internalType": "uint256",
          "name": "price",
          "type": "uint256"
        },
        {
          "indexed": false,
          "internalType": "uint256",
          "name": "quantity",
          "type": "uint256"
        },
        {
          "indexed": false,
          "internalType": "address",
          "name": "seller",
          "type": "address"
        }
      ],
      "name": "BookAdded",
      "type": "event"
    },
    {
      "anonymous": false,
      "inputs": [
        {
          "indexed": true,
          "internalType": "uint256",
          "name": "bookId",
          "type": "uint256"
        },
        {
          "indexed": false,
          "internalType": "uint256",
          "name": "quantity",
          "type": "uint256"
        },
        {
          "indexed": false,
          "internalType": "address",
          "name": "buyer",
          "type": "address"
        }
      ],
      "name": "BookPurchased",
      "type": "event"
    },
    {
      "anonymous": false,
      "inputs": [
        {
          "indexed": true,
          "internalType": "uint256",
          "name": "bookId",
          "type": "uint256"
        }
      ],
      "name": "BookRemoved",
      "type": "event"
    },
    {
      "inputs": [],
      "name": "FEE_PERCENT",
      "outputs": [
        {
          "internalType": "uint256",
          "name": "",
          "type": "uint256"
        }
      ],
      "stateMutability": "view",
      "type": "function"
    },
    {
      "inputs": [
        {
          "internalType": "uint256",
          "name": "bookId",
          "type": "uint256"
        },
        {
          "internalType": "uint256",
          "name": "price",
          "type": "uint256"
        },
        {
          "internalType": "uint256",
          "name": "quantity",
          "type": "uint256"
        }
      ],
      "name": "addBook",
      "outputs": [],
      "stateMutability": "nonpayable",
      "type": "function"
    },
    {
      "inputs": [
        {
          "internalType": "uint256",
          "name": "bookId",
          "type": "uint256"
        },
        {
          "internalType": "uint256",
          "name": "amount",
          "type": "uint256"
        }
      ],
      "name": "buyBook",
      "outputs": [],
      "stateMutability": "payable",
      "type": "function"
    },
    {
      "inputs": [],
      "name": "getAllBooks",
      "outputs": [
        {
          "components": [
            {
              "internalType": "uint256",
              "name": "bookId",
              "type": "uint256"
            },
            {
              "internalType": "address",
              "name": "seller",
              "type": "address"
            },
            {
              "internalType": "uint256",
              "name": "price",
              "type": "uint256"
            },
            {
              "internalType": "uint256",
              "name": "quantity",
              "type": "uint256"
            }
          ],
          "internalType": "struct BookMarketplace.Book[]",
          "name": "",
          "type": "tuple[]"
        }
      ],
      "stateMutability": "view",
      "type": "function"
    },
    {
      "inputs": [],
      "name": "owner",
      "outputs": [
        {
          "internalType": "address",
          "name": "",
          "type": "address"
        }
      ],
      "stateMutability": "view",
      "type": "function"
    }
  ],
  "bytecode": "0x60a0604052348015600f57600080fd5b503373ffffffffffffffffffffffffffffffffffffffff1660808173ffffffffffffffffffffffffffffffffffffffff1681525050608051610ff5610066600039600081816103e7015261052c0152610ff56000f3fe60806040526004361061004a5760003560e01c8063354528e81461004f5780633af8c2d51461007a5780638da5cb5b14610096578063c718dbb0146100c1578063eaf98d23146100ea575b600080fd5b34801561005b57600080fd5b50610064610115565b6040516100719190610a66565b60405180910390f35b610094600480360381019061008f9190610ab9565b610266565b005b3480156100a257600080fd5b506100ab61052a565b6040516100b89190610b08565b60405180910390f35b3480156100cd57600080fd5b506100e860048036038101906100e39190610b23565b61054e565b005b3480156100f657600080fd5b506100ff610779565b60405161010c9190610b85565b60405180910390f35b6060600060028054905067ffffffffffffffff81111561013857610137610ba0565b5b60405190808252806020026020018201604052801561017157816020015b61015e6108ca565b8152602001906001900390816101565790505b50905060005b60028054905081101561025e576000806002838154811061019b5761019a610bcf565b5b90600052602060002001548152602001908152602001600020604051806080016040529081600082015481526020016001820160009054906101000a900473ffffffffffffffffffffffffffffffffffffffff1673ffffffffffffffffffffffffffffffffffffffff1673ffffffffffffffffffffffffffffffffffffffff1681526020016002820154815260200160038201548152505082828151811061024657610245610bcf565b5b60200260200101819052508080600101915050610177565b508091505090565b60008060008481526020019081526020016000209050600073ffffffffffffffffffffffffffffffffffffffff168160010160009054906101000a900473ffffffffffffffffffffffffffffffffffffffff1673ffffffffffffffffffffffffffffffffffffffff160361030f576040517f08c379a000000000000000000000000000000000000000000000000000000000815260040161030690610c5b565b60405180910390fd5b600082118015610323575080600301548211155b610362576040517f08c379a000000000000000000000000000000000000000000000000000000000815260040161035990610cc7565b60405180910390fd5b60008282600201546103749190610d16565b90508034146103b8576040517f08c379a00000000000000000000000000000000000000000000000000000000081526004016103af90610da4565b60405180910390fd5b60006064600a836103c99190610d16565b6103d39190610df3565b9050600081836103e39190610e24565b90507f000000000000000000000000000000000000000000000000000000000000000073ffffffffffffffffffffffffffffffffffffffff166108fc839081150290604051600060405180830381858888f1935050505015801561044b573d6000803e3d6000fd5b508360010160009054906101000a900473ffffffffffffffffffffffffffffffffffffffff1673ffffffffffffffffffffffffffffffffffffffff166108fc829081150290604051600060405180830381858888f193505050501580156104b6573d6000803e3d6000fd5b50848460030160008282546104cb9190610e24565b9250508190555060008460030154036104e8576104e78661077e565b5b857f521e2ce810ec5a56ca5f120052ac5f5f10270342b683a3e480780807583cbf3b863360405161051a929190610e58565b60405180910390a2505050505050565b7f000000000000000000000000000000000000000000000000000000000000000081565b600073ffffffffffffffffffffffffffffffffffffffff1660008085815260200190815260200160002060010160009054906101000a900473ffffffffffffffffffffffffffffffffffffffff1673ffffffffffffffffffffffffffffffffffffffff16146105f2576040517f08c379a00000000000000000000000000000000000000000000000000000000081526004016105e990610ecd565b60405180910390fd5b6000821180156106025750600081115b610641576040517f08c379a000000000000000000000000000000000000000000000000000000000815260040161063890610f39565b60405180910390fd5b60405180608001604052808481526020013373ffffffffffffffffffffffffffffffffffffffff168152602001838152602001828152506000808581526020019081526020016000206000820151816000015560208201518160010160006101000a81548173ffffffffffffffffffffffffffffffffffffffff021916908373ffffffffffffffffffffffffffffffffffffffff160217905550604082015181600201556060820151816003015590505060028054905060016000858152602001908152602001600020819055506002839080600181540180825580915050600190039060005260206000200160009091909190915055827fb5ddc4863abe626ce930da67bcdecf229656ef0ad8f04e07e083fe1fa14b28b583833360405161076c93929190610f59565b60405180910390a2505050565b600a81565b6000600160008381526020019081526020016000205490506000600260016002805490506107ac9190610e24565b815481106107bd576107bc610bcf565b5b9060005260206000200154905080600283815481106107df576107de610bcf565b5b9060005260206000200181905550816001600083815260200190815260200160002081905550600280548061081757610816610f90565b5b6001900381819060005260206000200160009055905560016000848152602001908152602001600020600090556000808481526020019081526020016000206000808201600090556001820160006101000a81549073ffffffffffffffffffffffffffffffffffffffff0219169055600282016000905560038201600090555050827f3c5ce13264433bcf97e5d53c97af4fc33800e8c9dd927f965b116d0018d7cddf60405160405180910390a2505050565b604051806080016040528060008152602001600073ffffffffffffffffffffffffffffffffffffffff16815260200160008152602001600081525090565b600081519050919050565b600082825260208201905092915050565b6000819050602082019050919050565b6000819050919050565b61094781610934565b82525050565b600073ffffffffffffffffffffffffffffffffffffffff82169050919050565b60006109788261094d565b9050919050565b6109888161096d565b82525050565b6080820160008201516109a4600085018261093e565b5060208201516109b7602085018261097f565b5060408201516109ca604085018261093e565b5060608201516109dd606085018261093e565b50505050565b60006109ef838361098e565b60808301905092915050565b6000602082019050919050565b6000610a1382610908565b610a1d8185610913565b9350610a2883610924565b8060005b83811015610a59578151610a4088826109e3565b9750610a4b836109fb565b925050600181019050610a2c565b5085935050505092915050565b60006020820190508181036000830152610a808184610a08565b905092915050565b600080fd5b610a9681610934565b8114610aa157600080fd5b50565b600081359050610ab381610a8d565b92915050565b60008060408385031215610ad057610acf610a88565b5b6000610ade85828601610aa4565b9250506020610aef85828601610aa4565b9150509250929050565b610b028161096d565b82525050565b6000602082019050610b1d6000830184610af9565b92915050565b600080600060608486031215610b3c57610b3b610a88565b5b6000610b4a86828701610aa4565b9350506020610b5b86828701610aa4565b9250506040610b6c86828701610aa4565b9150509250925092565b610b7f81610934565b82525050565b6000602082019050610b9a6000830184610b76565b92915050565b7f4e487b7100000000000000000000000000000000000000000000000000000000600052604160045260246000fd5b7f4e487b7100000000000000000000000000000000000000000000000000000000600052603260045260246000fd5b600082825260208201905092915050565b7f426f6f6b20646f6573206e6f7420657869737400000000000000000000000000600082015250565b6000610c45601383610bfe565b9150610c5082610c0f565b602082019050919050565b60006020820190508181036000830152610c7481610c38565b9050919050565b7f496e76616c6964207175616e7469747900000000000000000000000000000000600082015250565b6000610cb1601083610bfe565b9150610cbc82610c7b565b602082019050919050565b60006020820190508181036000830152610ce081610ca4565b9050919050565b7f4e487b7100000000000000000000000000000000000000000000000000000000600052601160045260246000fd5b6000610d2182610934565b9150610d2c83610934565b9250828202610d3a81610934565b91508282048414831517610d5157610d50610ce7565b5b5092915050565b7f496e636f7272656374207061796d656e74000000000000000000000000000000600082015250565b6000610d8e601183610bfe565b9150610d9982610d58565b602082019050919050565b60006020820190508181036000830152610dbd81610d81565b9050919050565b7f4e487b7100000000000000000000000000000000000000000000000000000000600052601260045260246000fd5b6000610dfe82610934565b9150610e0983610934565b925082610e1957610e18610dc4565b5b828204905092915050565b6000610e2f82610934565b9150610e3a83610934565b9250828203905081811115610e5257610e51610ce7565b5b92915050565b6000604082019050610e6d6000830185610b76565b610e7a6020830184610af9565b9392505050565b7f426f6f6b20616c72656164792065786973747300000000000000000000000000600082015250565b6000610eb7601383610bfe565b9150610ec282610e81565b602082019050919050565b60006020820190508181036000830152610ee681610eaa565b9050919050565b7f496e76616c6964207072696365206f72207175616e7469747900000000000000600082015250565b6000610f23601983610bfe565b9150610f2e82610eed565b602082019050919050565b60006020820190508181036000830152610f5281610f16565b9050919050565b6000606082019050610f6e6000830186610b76565b610f7b6020830185610b76565b610f886040830184610af9565b949350505050565b7f4e487b7100000000000000000000000000000000000000000000000000000000600052603160045260246000fdfea2646970667358221220dfb91e3d8cf9dd043384515e8a802754aaacadbf034a6ca90d1ccda993cb356764736f6c634300081c0033",
  "linkReferences": {},
  "deployedLinkReferences": {}
}