{
  "_format": "hh-sol-artifact-1",
  "contractName": "Voting",
  "sourceName": "contracts/Voting.sol",
  "abi": [
    {
      "inputs": [
        {
          "internalType": "string[]",
          "name": "proposalNames",
          "type": "string[]"
        },
        {
          "internalType": "uint256",
          "name": "_duration",
          "type": "uint256"
        }
      ],
      "stateMutability": "nonpayable",
      "type": "constructor"
    },
    {
      "inputs": [],
      "name": "duration",
      "outputs": [
        {
          "internalType": "uint256",
          "name": "",
          "type": "uint256"
        }
      ],
      "stateMutability": "view",
      "type": "function"
    },
    {
      "inputs": [],
      "name": "getProposals",
      "outputs": [
        {
          "components": [
            {
              "internalType": "string",
              "name": "description",
              "type": "string"
            },
            {
              "internalType": "uint256",
              "name": "voteCount",
              "type": "uint256"
            }
          ],
          "internalType": "struct Voting.Proposal[]",
          "name": "",
          "type": "tuple[]"
        }
      ],
      "stateMutability": "view",
      "type": "function"
    },
    {
      "inputs": [],
      "name": "hasVotingEnded",
      "outputs": [
        {
          "internalType": "bool",
          "name": "",
          "type": "bool"
        }
      ],
      "stateMutability": "view",
      "type": "function"
    },
    {
      "inputs": [],
      "name": "owner",
      "outputs": [
        {
          "internalType": "address",
          "name": "",
          "type": "address"
        }
      ],
      "stateMutability": "view",
      "type": "function"
    },
    {
      "inputs": [
        {
          "internalType": "uint256",
          "name": "",
          "type": "uint256"
        }
      ],
      "name": "proposals",
      "outputs": [
        {
          "internalType": "string",
          "name": "description",
          "type": "string"
        },
        {
          "internalType": "uint256",
          "name": "voteCount",
          "type": "uint256"
        }
      ],
      "stateMutability": "view",
      "type": "function"
    },
    {
      "inputs": [],
      "name": "startTime",
      "outputs": [
        {
          "internalType": "uint256",
          "name": "",
          "type": "uint256"
        }
      ],
      "stateMutability": "view",
      "type": "function"
    },
    {
      "inputs": [
        {
          "internalType": "uint256",
          "name": "proposalIndex",
          "type": "uint256"
        }
      ],
      "name": "vote",
      "outputs": [],
      "stateMutability": "nonpayable",
      "type": "function"
    },
    {
      "inputs": [
        {
          "internalType": "address",
          "name": "",
          "type": "address"
        }
      ],
      "name": "voters",
      "outputs": [
        {
          "internalType": "bool",
          "name": "",
          "type": "bool"
        }
      ],
      "stateMutability": "view",
      "type": "function"
    }
  ],
  "bytecode": "0x608060405234801561001057600080fd5b506040516112d33803806112d3833981810160405281019061003291906103b0565b33600260006101000a81548173ffffffffffffffffffffffffffffffffffffffff021916908373ffffffffffffffffffffffffffffffffffffffff160217905550806004819055504260038190555060005b825181101561011757600160405180604001604052808584815181106100ad576100ac61040c565b5b602002602001015181526020016000815250908060018154018082558091505060019003906000526020600020906002020160009091909190915060008201518160000190816100fd9190610652565b506020820151816001015550508080600101915050610084565b505050610724565b6000604051905090565b600080fd5b600080fd5b600080fd5b6000601f19601f8301169050919050565b7f4e487b7100000000000000000000000000000000000000000000000000000000600052604160045260246000fd5b61018182610138565b810181811067ffffffffffffffff821117156101a05761019f610149565b5b80604052505050565b60006101b361011f565b90506101bf8282610178565b919050565b600067ffffffffffffffff8211156101df576101de610149565b5b602082029050602081019050919050565b600080fd5b600080fd5b600067ffffffffffffffff82111561021557610214610149565b5b61021e82610138565b9050602081019050919050565b60005b8381101561024957808201518184015260208101905061022e565b60008484015250505050565b6000610268610263846101fa565b6101a9565b905082815260208101848484011115610284576102836101f5565b5b61028f84828561022b565b509392505050565b600082601f8301126102ac576102ab610133565b5b81516102bc848260208601610255565b91505092915050565b60006102d86102d3846101c4565b6101a9565b905080838252602082019050602084028301858111156102fb576102fa6101f0565b5b835b8181101561034257805167ffffffffffffffff8111156103205761031f610133565b5b80860161032d8982610297565b855260208501945050506020810190506102fd565b5050509392505050565b600082601f83011261036157610360610133565b5b81516103718482602086016102c5565b91505092915050565b6000819050919050565b61038d8161037a565b811461039857600080fd5b50565b6000815190506103aa81610384565b92915050565b600080604083850312156103c7576103c6610129565b5b600083015167ffffffffffffffff8111156103e5576103e461012e565b5b6103f18582860161034c565b92505060206104028582860161039b565b9150509250929050565b7f4e487b7100000000000000000000000000000000000000000000000000000000600052603260045260246000fd5b600081519050919050565b7f4e487b7100000000000000000000000000000000000000000000000000000000600052602260045260246000fd5b6000600282049050600182168061048d57607f821691505b6020821081036104a05761049f610446565b5b50919050565b60008190508160005260206000209050919050565b60006020601f8301049050919050565b600082821b905092915050565b6000600883026105087fffffffffffffffffffffffffffffffffffffffffffffffffffffffffffffffff826104cb565b61051286836104cb565b95508019841693508086168417925050509392505050565b6000819050919050565b600061054f61054a6105458461037a565b61052a565b61037a565b9050919050565b6000819050919050565b61056983610534565b61057d61057582610556565b8484546104d8565b825550505050565b600090565b610592610585565b61059d818484610560565b505050565b5b818110156105c1576105b660008261058a565b6001810190506105a3565b5050565b601f821115610606576105d7816104a6565b6105e0846104bb565b810160208510156105ef578190505b6106036105fb856104bb565b8301826105a2565b50505b505050565b600082821c905092915050565b60006106296000198460080261060b565b1980831691505092915050565b60006106428383610618565b9150826002028217905092915050565b61065b8261043b565b67ffffffffffffffff81111561067457610673610149565b5b61067e8254610475565b6106898282856105c5565b600060209050601f8311600181146106bc57600084156106aa578287015190505b6106b48582610636565b86555061071c565b601f1984166106ca866104a6565b60005b828110156106f2578489015182556001820191506020850194506020810190506106cd565b8683101561070f578489015161070b601f891682610618565b8355505b6001600288020188555050505b505050505050565b610ba0806107336000396000f3fe608060405234801561001057600080fd5b50600436106100885760003560e01c806362564c481161005b57806362564c481461011657806378e97925146101345780638da5cb5b14610152578063a3ec138d1461017057610088565b80630121b93f1461008d578063013cf08b146100a95780630fb5a6b4146100da5780633dd079c0146100f8575b600080fd5b6100a760048036038101906100a291906105b8565b6101a0565b005b6100c360048036038101906100be91906105b8565b61035b565b6040516100d1929190610684565b60405180910390f35b6100e2610417565b6040516100ef91906106b4565b60405180910390f35b61010061041d565b60405161010d91906106ea565b60405180910390f35b61011e610436565b60405161012b919061085d565b60405180910390f35b61013c610531565b60405161014991906106b4565b60405180910390f35b61015a610537565b60405161016791906108c0565b60405180910390f35b61018a60048036038101906101859190610907565b61055d565b60405161019791906106ea565b60405180910390f35b6004546003546101b09190610963565b4211156101f2576040517f08c379a00000000000000000000000000000000000000000000000000000000081526004016101e9906109e3565b60405180910390fd5b6000803373ffffffffffffffffffffffffffffffffffffffff1673ffffffffffffffffffffffffffffffffffffffff16815260200190815260200160002060009054906101000a900460ff161561027e576040517f08c379a000000000000000000000000000000000000000000000000000000000815260040161027590610a4f565b60405180910390fd5b60018054905081106102c5576040517f08c379a00000000000000000000000000000000000000000000000000000000081526004016102bc90610abb565b60405180910390fd5b60016000803373ffffffffffffffffffffffffffffffffffffffff1673ffffffffffffffffffffffffffffffffffffffff16815260200190815260200160002060006101000a81548160ff021916908315150217905550600180828154811061033157610330610adb565b5b906000526020600020906002020160010160008282546103519190610963565b9250508190555050565b6001818154811061036b57600080fd5b906000526020600020906002020160009150905080600001805461038e90610b39565b80601f01602080910402602001604051908101604052809291908181526020018280546103ba90610b39565b80156104075780601f106103dc57610100808354040283529160200191610407565b820191906000526020600020905b8154815290600101906020018083116103ea57829003601f168201915b5050505050908060010154905082565b60045481565b600060045460035461042f9190610963565b4211905090565b60606001805480602002602001604051908101604052809291908181526020016000905b82821015610528578382906000526020600020906002020160405180604001604052908160008201805461048d90610b39565b80601f01602080910402602001604051908101604052809291908181526020018280546104b990610b39565b80156105065780601f106104db57610100808354040283529160200191610506565b820191906000526020600020905b8154815290600101906020018083116104e957829003601f168201915b505050505081526020016001820154815250508152602001906001019061045a565b50505050905090565b60035481565b600260009054906101000a900473ffffffffffffffffffffffffffffffffffffffff1681565b60006020528060005260406000206000915054906101000a900460ff1681565b600080fd5b6000819050919050565b61059581610582565b81146105a057600080fd5b50565b6000813590506105b28161058c565b92915050565b6000602082840312156105ce576105cd61057d565b5b60006105dc848285016105a3565b91505092915050565b600081519050919050565b600082825260208201905092915050565b60005b8381101561061f578082015181840152602081019050610604565b60008484015250505050565b6000601f19601f8301169050919050565b6000610647826105e5565b61065181856105f0565b9350610661818560208601610601565b61066a8161062b565b840191505092915050565b61067e81610582565b82525050565b6000604082019050818103600083015261069e818561063c565b90506106ad6020830184610675565b9392505050565b60006020820190506106c96000830184610675565b92915050565b60008115159050919050565b6106e4816106cf565b82525050565b60006020820190506106ff60008301846106db565b92915050565b600081519050919050565b600082825260208201905092915050565b6000819050602082019050919050565b600082825260208201905092915050565b600061074d826105e5565b6107578185610731565b9350610767818560208601610601565b6107708161062b565b840191505092915050565b61078481610582565b82525050565b600060408301600083015184820360008601526107a78282610742565b91505060208301516107bc602086018261077b565b508091505092915050565b60006107d3838361078a565b905092915050565b6000602082019050919050565b60006107f382610705565b6107fd8185610710565b93508360208202850161080f85610721565b8060005b8581101561084b578484038952815161082c85826107c7565b9450610837836107db565b925060208a01995050600181019050610813565b50829750879550505050505092915050565b6000602082019050818103600083015261087781846107e8565b905092915050565b600073ffffffffffffffffffffffffffffffffffffffff82169050919050565b60006108aa8261087f565b9050919050565b6108ba8161089f565b82525050565b60006020820190506108d560008301846108b1565b92915050565b6108e48161089f565b81146108ef57600080fd5b50565b600081359050610901816108db565b92915050565b60006020828403121561091d5761091c61057d565b5b600061092b848285016108f2565b91505092915050565b7f4e487b7100000000000000000000000000000000000000000000000000000000600052601160045260246000fd5b600061096e82610582565b915061097983610582565b925082820190508082111561099157610990610934565b5b92915050565b7f566f74696e672068617320656e6465642e000000000000000000000000000000600082015250565b60006109cd6011836105f0565b91506109d882610997565b602082019050919050565b600060208201905081810360008301526109fc816109c0565b9050919050565b7f596f75206861766520616c726561647920766f7465642e000000000000000000600082015250565b6000610a396017836105f0565b9150610a4482610a03565b602082019050919050565b60006020820190508181036000830152610a6881610a2c565b9050919050565b7f496e76616c69642070726f706f73616c20696e6465782e000000000000000000600082015250565b6000610aa56017836105f0565b9150610ab082610a6f565b602082019050919050565b60006020820190508181036000830152610ad481610a98565b9050919050565b7f4e487b7100000000000000000000000000000000000000000000000000000000600052603260045260246000fd5b7f4e487b7100000000000000000000000000000000000000000000000000000000600052602260045260246000fd5b60006002820490506001821680610b5157607f821691505b602082108103610b6457610b63610b0a565b5b5091905056fea2646970667358221220408f45ed159b970a4c6850713664e4f9a63d895f5a5cf56355c856c6a64bca1164736f6c634300081c0033",
  "linkReferences": {},
  "deployedLinkReferences": {}
}